:020000040800F2
:10000000002800202D0F0008D90D0008DF0D000882
:10001000E50D0008EB0D0008F10D000800000000E0
:10002000000000000000000000000000F70D0008C4
:10003000030E0008000000000F0E00081B0E000851
:10004000750F0008750F0008750F0008750F000880
:10005000750F0008750F0008750F0008750F000870
:10006000750F0008750F0008750F0008750F000860
:10007000750F0008750F0008750F0008750F000850
:10008000750F0008750F0008750F0008750F000840
:10009000750F0008750F0008750F0008750F000830
:1000A000750F0008750F0008750F0008750F000820
:1000B000290E0008750F000800000000750F0008E9
:1000C000750F00080000000000000000750F000818
:1000D00000000000750F0008750F00080000000008
:1000E000750F0008750F0008750F0008000000006C
:1000F0000000000000000000000000000000000000
:0C01000000000000000000005FF808F1A3
:10010C0010B5054C237833B9044B13B10448AFF345
:10011C0000800123237010BD3C0000200000000073
:10012C00D824000808B5034B1BB103490348AFF3AF
:10013C00008008BD0000000040000020D82400080A
:10014C0080B400AF084B1B68042B03DD064B012267
:10015C001A6004E0044B1B680133034A136000BFB0
:10016C00BD4680BC704700BF6000002080B483B0E7
:10017C0000AF00237B6012E00E4A7B6852F823200C
:10018C000D497B6841F823200A4A7B6852F82320EA
:10019C000A497B6841F823207B6801337B607B68CC
:1001AC00022BE9DD064B00221A6000BF0C37BD465E
:1001BC0080BC7047700000200C0000200000002064
:1001CC005C00002080B582B000AF00237B6057E05C
:1001DC002F4A7B6813441B78022B3BD0022B4CDC40
:1001EC00002B02D0012B19D047E07B68DBB21846FC
:1001FC0000F0B6F80346002B3AD0254A7B6813442E
:10020C0001221A707B68002B32D1FFF799FF214B2A
:10021C001B68012B2CDDFFF7A9FF29E07B68DBB203
:10022C00184600F09DF80346002B05D1184A7B6850
:10023C00134400221A701DE07B68DBB2184600F0F4
:10024C00A9F80346002B15D0114A7B6813440222EF
:10025C001A700FE07B68DBB2184600F081F8034699
:10026C00002B09D10A4A7B68134400221A7003E060
:10027C0000BF02E000BF00E000BF7B6801337B6081
:10028C007B68022BA4DD00BF00BF0837BD4680BDD4
:10029C00580000206000002090B583B000AF002310
:1002AC00FB7146E0FA79FB792649895C264AD154E0
:1002BC00FB79264A32F81330FC791946244801F0B0
:1002CC003FF903461A461F4B1A55FB791D4AD25C5F
:1002DC00FB791D49CB5C9A4205D1FA79FB79194916
:1002EC00895C1C4AD154FB791A4AD35C002B14D17B
:1002FC00FB79194A32F81330632B09D8FB79164A6B
:10030C0032F81320013291B2134A22F813100DE087
:10031C00FB79124A0121D15408E0FB790E4A0021E5
:10032C0022F81310FB790D4A0021D154FB790133CB
:10033C00FB71FB79022BB5D900BF00BF0C37BD4652
:10034C0090BD00BF84000020880000209000002099
:10035C00000801408C000020680000206400002090
:10036C0080B483B000AF0346FB71FB79022B01D93B
:10037C00002307E0FB79064AD35C002B0CBF01235A
:10038C000023DBB218460C37BD4680BC704700BF5B
:10039C008C00002080B483B000AF0346FB71FB7966
:1003AC00022B01D9FF2307E0FB79064AD35C012B12
:1003BC000CBF01230023DBB218460C37BD4680BCB2
:1003CC00704700BF6400002080B584B000AFF860B7
:1003DC00B96011461A460B46FB801346BB80FB687E
:1003EC00092B00F2C58101A252F823F02104000868
:1003FC0077040008CD0400082305000879050008DF
:10040C00CF050008250600087B060008D106000869
:10041C0027070008FB8800221946B86801F0A7F8E6
:10042C00BB8800221946B86801F0A1F83B8B00226A
:10043C001946B86801F09BF8BB8B00221946B868C6
:10044C0001F095F83B8C00221946B86801F08FF842
:10045C00BB8C00221946B86801F089F83B8D01224B
:10046C001946B86801F083F882E1FB88012219462D
:10047C00B86801F07CF8BB8800221946B86801F016
:10048C0076F83B8B00221946B86801F070F8BB8BEC
:10049C0001221946B86801F06AF83B8C0122194612
:1004AC00B86801F064F8BB8C01221946B86801F0F9
:1004BC005EF83B8D01221946B86801F058F857E1F7
:1004CC00FB8800221946B86801F051F8BB8800225D
:1004DC001946B86801F04BF83B8B01221946B868F5
:1004EC0001F045F8BB8B00221946B86801F03FF8C3
:1004FC003B8C00221946B86801F039F8BB8C0122FC
:10050C001946B86801F033F83B8D00221946B868DB
:10051C0001F02DF82CE1FB8800221946B86801F097
:10052C0026F8BB8800221946B86801F020F83B8BEE
:10053C0000221946B86801F01AF8BB8B0022194644
:10054C00B86801F014F83B8C01221946B86801F028
:10055C000EF8BB8C01221946B86801F008F83B8DE7
:10056C0000221946B86801F002F801E1FB8801226B
:10057C001946B86800F0FBFFBB8800221946B86822
:10058C0000F0F5FF3B8B00221946B86800F0EFFF36
:10059C00BB8B01221946B86800F0E9FF3B8C0122A5
:1005AC001946B86800F0E3FFBB8C00221946B86806
:1005BC0000F0DDFF3B8D00221946B86800F0D7FF34
:1005CC00D6E0FB8800221946B86800F0D0FFBB8843
:1005DC0001221946B86800F0CAFF3B8B002219466D
:1005EC00B86800F0C4FFBB8B00221946B86800F055
:1005FC00BEFF3B8C01221946B86800F0B8FFBB8CDB
:10060C0000221946B86800F0B2FF3B8D0022194653
:10061C00B86800F0ACFFABE0FB8800221946B86864
:10062C0000F0A5FFBB8801221946B86800F09FFFB7
:10063C003B8B00221946B86800F099FFBB8B002257
:10064C001946B86800F093FF3B8C00221946B86835
:10065C0000F08DFFBB8C00221946B86800F087FFB4
:10066C003B8D00221946B86800F081FF80E0FB88C2
:10067C0000221946B86800F07AFFBB8800221946A0
:10068C00B86800F074FF3B8B00221946B86800F084
:10069C006EFFBB8B01221946B86800F068FF3B8CDB
:1006AC0001221946B86800F062FFBB8C0122194682
:1006BC00B86800F05CFF3B8D01221946B86800F069
:1006CC0056FF55E0FB8800221946B86800F04FFF32
:1006DC00BB8800221946B86800F049FF3B8B00220A
:1006EC001946B86800F043FFBB8B00221946B86866
:1006FC0000F03DFF3B8C00221946B86800F037FF34
:10070C00BB8C00221946B86800F031FF3B8D0022EB
:10071C001946B86800F02BFF2AE0FB880022194626
:10072C00B86800F024FFBB8800221946B86800F0B6
:10073C001EFF3B8B00221946B86800F018FFBB8BDC
:10074C0000221946B86800F012FF3B8C01221946B2
:10075C00B86800F00CFFBB8C00221946B86800F09A
:10076C0006FF3B8D00221946B86800F000FF00BF61
:10077C0000BF1037BD4680BD80B584B000AF7B6034
:10078C000346FB810B46BB8113467B817B68022BA6
:10079C002FD07B68022B3FDC7B68002B03D07B685F
:1007AC00012B13D038E0FB8900221946204800F0B9
:1007BC00DEFEBB89012219461D4800F0D8FE7B895C
:1007CC00012219461A4800F0D2FE25E0FB890122CD
:1007DC001946174800F0CBFEBB8901221946144874
:1007EC0000F0C5FE7B8900221946114800F0BFFEBF
:1007FC0012E0FB89012219460D4800F0B8FEBB89B6
:10080C00002219460A4800F0B2FE7B8901221946E3
:10081C00074800F0ACFE00BF7B689B00BA6913442C
:10082C001A68013A1A6000BF1037BD4680BD00BF80
:10083C00000C014080B584B002AF786039600C4B7D
:10084C0000933B684FF400724FF480718020FFF7E7
:10085C0093FF084B00937B684FF480524FF4006178
:10086C004FF48060FFF788FF00BF0837BD4680BD9E
:10087C000C0000200000002080B586B006AF474B6E
:10088C001B68022B02DD454B00221A60444B1B688F
:10089C00002B02DA424B02221A60404B1B68404A82
:1008AC00126811461846FFF7C5FF3C4B1B683D4AC2
:1008BC0052F82300802304934023039320230293B4
:1008CC001023019308230093042302223649FFF7D7
:1008DC007BFD334B1B68354A52F823004FF4005311
:1008EC0004934FF4805303934FF4006302934FF43B
:1008FC00806301934FF4007300934FF48073802254
:10090C002B49FFF761FD264B1B68284A52F8230040
:10091C004FF4804304934FF4005303934FF48053EC
:10092C0002934FF4006301934FF4806300934FF4F0
:10093C0000734FF480721C49FFF746FD174B1B6880
:10094C00184A52F82330012B0EDC144B1A68134B47
:10095C001B68184951F82220124941F823200F4BEB
:10096C001B6801330D4A13600D4B1B680F4A52F87C
:10097C002330012B0EDC0A4B1A68094B1B680D49FE
:10098C0051F82220094941F82320054B1B68013BF3
:10099C00034A136000BFBD4680BD00BF7C00002031
:1009AC001800002000000020000C01400C0000206A
:1009BC00000801407000002080B586B006AF164BD1
:1009CC001B68012B08D100224821144800F0CFFDF0
:1009DC00114B02221A6007E0012248210F4800F057
:1009EC00C6FD0D4B01221A60012236210B4800F086
:1009FC00BEFD8023049340230393202302931023F2
:100A0C000193082300930423022205490220FFF7D7
:100A1C00DBFC00BFBD4680BD1C000020000801406F
:100A2C00000C014080B586B006AF164B1B68012B3D
:100A3C0008D100222421144800F099FD114B022208
:100A4C001A6007E0012224210F4800F090FD0D4BA5
:100A5C0001221A6001225A210B4800F088FD8023E4
:100A6C000493402303932023029310230193082320
:100A7C0000930423022205490320FFF7A5FC00BFC5
:100A8C00BD4680BD2000002000080140000C014044
:100A9C0080B586B006AF174B1B68012B08D100221E
:100AAC001221154800F063FD124B02221A6007E078
:100ABC0001221221104800F05AFD0E4B01221A603F
:100ACC0001224FF4B4510C4800F051FD80230493E3
:100ADC0040230393202302931023019308230093B4
:100AEC000423022205490420FFF76EFC00BFBD461B
:100AFC0080BD00BF2400002000080140000C014014
:100B0C0080B500AF00F032FA00F00CF8044801F0A8
:100B1C005AF900F08FF800F041F8FFF753FBFCE7AF
:100B2C009800002080B590B000AF07F11803282280
:100B3C000021184601F0C2FC3B1D00221A605A60CD
:100B4C009A60DA601A610223BB610123BB62102335
:100B5C00FB6200237B6307F11803184600F020FDAD
:100B6C000346002B01D000F0D5F80F237B60002347
:100B7C00BB600023FB6000233B6100237B613B1DBA
:100B8C000021184600F08CFF0346002B01D000F02A
:100B9C00C1F800BF4037BD4680BD000080B586B0AF
:100BAC0000AF07F1080300221A605A609A60DA60FD
:100BBC003B4600221A605A601D4B4FF080421A606F
:100BCC001B4B41F63F725A60194B00229A60184B2E
:100BDC000922DA60164B00221A61154B00229A6129
:100BEC00134801F0C5F80346002B01D000F092F831
:100BFC004FF48053BB6007F1080319460C4801F011
:100C0C000DFA0346002B01D000F084F800233B6062
:100C1C0000237B603B461946054801F0D5FB034693
:100C2C00002B01D000F076F800BF1837BD4680BD10
:100C3C009800002080B588B000AF07F110030022A7
:100C4C001A605A609A60DA602F4B9B692E4A43F007
:100C5C00200393612C4B9B6903F02003FB60FB6822
:100C6C00294B9B69284A43F004039361264B9B69EB
:100C7C0003F00403BB60BB68234B9B69224A43F01F
:100C8C0008039361204B9B6903F008037B607B682E
:100C9C0000224FF67F411D4800F069FC002247F608
:100CAC00FE711B4800F063FC4FF67F433B61012350
:100CBC007B610023BB610223FB6107F11003194622
:100CCC00124800F0C3FA4FF460733B6100237B6160
:100CDC000023BB6107F1100319460C4800F0B6FA6B
:100CEC0047F6FE733B6101237B610023BB6102234A
:100CFC00FB6107F110031946054800F0A7FA00BF85
:100D0C002037BD4680BD00BF0010024000080140E6
:100D1C00000C014080B400AF72B600BFFEE70000CB
:100D2C0080B485B000AF154B9B69144A43F00103A6
:100D3C009361124B9B6903F00103BB60BB680F4BC3
:100D4C00DB690E4A43F08053D3610C4BDB6903F033
:100D5C0080537B607B680A4B5B68FB60FB6823F00D
:100D6C00E063FB60FB6843F08063FB60044AFB6854
:100D7C00536000BF1437BD4680BC70470010024062
:100D8C000000014080B584B000AF78607B681B68C0
:100D9C00B3F1804F13D10C4BDB690B4A43F00103C9
:100DAC00D361094BDB6903F00103FB60FB68002294
:100DBC0000211C2000F013FA1C2000F02CFA00BFBC
:100DCC001037BD4680BD00BF0010024080B400AF9C
:100DDC00FEE780B400AFFEE780B400AFFEE780B45E
:100DEC0000AFFEE780B400AFFEE780B400AF00BFF9
:100DFC00BD4680BC704780B400AF00BFBD4680BC10
:100E0C00704780B400AF00BFBD4680BC704780B552
:100E1C0000AF00F0F1F800BF80BD000080B500AF5E
:100E2C00024800F0F3FF00BF80BD00BF9800002017
:100E3C0080B400AF154B1B68144A43F001031360D8
:100E4C00124B5A681149124B13404B600F4B1B68E5
:100E5C000E4A23F0847323F4803313600B4B1B680E
:100E6C000A4A23F480231360084B5B68074A23F477
:100E7C00FE035360054B4FF41F029A60054B4FF075
:100E8C0000629A6000BFBD4680BC704700100240F3
:100E9C000000FFF800ED00E080B582B000AF786094
:100EAC001B4B1B68013B1A4A1360FFF7F5F9184BF3
:100EBC001B68002B27DC174B1B68012B05D1FFF798
:100ECC00DBFC154B1B68124A1360124B1B68022B80
:100EDC0005D1FFF771FD114B1B680D4A13600D4BCB
:100EEC001B68032B05D1FFF79DFD0C4B1B68084AB3
:100EFC001360084B1B68042B05D1FFF7C9FD074B8A
:100F0C001B68034A136000BF0837BD4680BD00BF95
:100F1C0080000020D80000202C0000203000002091
:100F2C00002103E00B4B5B58435004310A480B4B38
:100F3C0042189A42F6D30A4A02E0002342F8043BD4
:100F4C00084B9A42F9D3FFF773FF01F093FAFFF7BE
:100F5C00D7FD704718250008000000203C00002039
:100F6C003C000020E0000020FEE7000080B500AF50
:100F7C00084B1B68074A43F010031360032000F072
:100F8C0023F90F2000F008F8FFF7CAFE00231846DB
:100F9C0080BD00BF0020024080B582B000AF7860F9
:100FAC00124B1A68124B1B7819464FF47A73B3FB29
:100FBC00F1F3B2FBF3F3184600F03BF90346002BB8
:100FCC0001D001230EE07B680F2B0AD80022796830
:100FDC004FF0FF3000F003F9064A7B6813600023E2
:100FEC0000E0012318460837BD4680BD28000020CC
:100FFC00380000203400002080B400AF054B1B7873
:10100C001A46054B1B681344034A136000BFBD46C8
:10101C0080BC704738000020DC00002080B400AF9A
:10102C00024B1B681846BD4680BC7047DC00002094
:10103C0080B485B000AF78607B6803F00703FB6079
:10104C000C4BDB68BB60BA684FF6FF031340BB6008
:10105C00FB681A02BB68134343F0BF6343F40033CD
:10106C00BB60044ABB68D36000BF1437BD4680BC6C
:10107C00704700BF00ED00E080B400AF044BDB68AC
:10108C001B0A03F007031846BD4680BC704700BF1F
:10109C0000ED00E080B483B000AF0346FB7197F91C
:1010AC000730002B0BDBFB7903F01F02064997F985
:1010BC0007305B09012000FA02F241F8232000BF3F
:1010CC000C37BD4680BC704700E100E080B483B0B3
:1010DC0000AF03463960FB7197F90730002B0ADB30
:1010EC003B68DAB20C4997F907301201D2B20B44C3
:1010FC0083F800230AE03B68DAB20849FB7903F075
:10110C000F03043B1201D2B20B441A7600BF0C370A
:10111C00BD4680BC704700BF00E100E000ED00E080
:10112C0080B489B000AFF860B9607A60FB6803F0F6
:10113C000703FB61FB69C3F10703042B28BF0423DE
:10114C00BB61FB690433062B02D9FB69033B00E04E
:10115C0000237B614FF0FF32BB6902FA03F3DA43E1
:10116C00BB681A407B699A404FF0FF317B6901FAEA
:10117C0003F3D9437B680B40134318462437BD4611
:10118C0080BC704780B582B000AF78607B68013B53
:10119C00B3F1807F01D301230FE00A4A7B68013B46
:1011AC0053600F214FF0FF30FFF790FF054B0022EB
:1011BC009A60044B07221A60002318460837BD4674
:1011CC0080BD00BF10E000E080B582B000AF786059
:1011DC007868FFF72DFF00BF0837BD4680BD80B58E
:1011EC0086B000AF0346B9607A60FB7300237B6165
:1011FC00FFF742FF78617A68B9687869FFF790FF6A
:10120C00024697F90F3011461846FFF75FFF00BFF3
:10121C001837BD4680BD80B582B000AF0346FB7168
:10122C0097F907301846FFF735FF00BF0837BD4662
:10123C0080BD80B582B000AF78607868FFF7A2FF00
:10124C00034618460837BD4680BD000080B48BB0FD
:10125C0000AF7860396000237B6200233B6248E179
:10126C0001227B6A02FA03F3FB613B681B68FA6993
:10127C001340BB61BA69FB699A4240F037813B6805
:10128C005B68A34A93425ED0A14A934275D8A14AA7
:10129C00934258D09F4A93426FD89F4A934252D060
:1012AC009D4A934269D89D4A93424CD09B4A9342A3
:1012BC0063D89B4A934246D0994A93425DD8122BED
:1012CC002AD8122B59D801A252F823F05313000834
:1012DC002D1300083F130008811300088713000822
:1012EC00871300088713000887130008871300086A
:1012FC00871300088713000887130008871300085A
:10130C008713000887130008871300088713000849
:10131C003513000849130008824A934213D02CE07D
:10132C003B68DB683B6229E03B68DB6804333B626B
:10133C0024E03B68DB6808333B621FE03B68DB68FA
:10134C000C333B621AE03B689B68002B02D10423F0
:10135C003B6213E03B689B68012B05D108233B6281
:10136C007B68FA691A6109E008233B627B68FA69B9
:10137C005A6103E000233B6200E000BFBB69FF2B16
:10138C0001D87B6801E07B6804337B61BB69FF2B70
:10139C0002D87B6A9B0002E07B6A083B9B003B61A6
:1013AC007B691A680F213B6901FA03F3DB431A408E
:1013BC00396A3B6901FA03F31A437B691A603B688B
:1013CC005B6803F08053002B00F09080564B9B69B8
:1013DC00554A43F001039361534B9B6903F001039E
:1013EC00BB60BB68514A7B6A9B08023352F82330BE
:1013FC00FB607B6A03F003039B000F2202FA03F3EA
:10140C00DB43FA681340FB607B68494A93420DD07A
:10141C007B68484A934207D07B68474A934201D184
:10142C00022304E0032302E0012300E000237A6A94
:10143C0002F0030292009340FA681343FB603B49AD
:10144C007B6A9B080233FA6841F823203B685B688F
:10145C0003F48033002B06D0384B1A683749BB692C
:10146C0013430B6006E0354B1A68BB69DB43334909
:10147C0013400B603B685B6803F40033002B06D011
:10148C002E4B5A682D49BB6913434B6006E02B4B1E
:10149C005A68BB69DB43294913404B603B685B6866
:1014AC0003F48013002B06D0244B9A682349BB69A4
:1014BC0013438B6006E0214B9A68BB69DB431F49E1
:1014CC0013408B603B685B6803F40013002B06D061
:1014DC001A4BDA681949BB691343CB6006E0174B0A
:1014EC00DA68BB69DB4315491340CB607B6A013377
:1014FC007B623B681A687B6A22FA03F3002B7FF449
:10150C00AFAE00BF00BF2C37BD4680BC704700BFDC
:10151C0000003210000031100000221000002110D9
:10152C0000001210000011100010024000000140D9
:10153C0000080140000C0140001001400004014073
:10154C0080B485B000AF78600B467B807B689A686E
:10155C007B881340002B02D00123FB7301E0002396
:10156C00FB73FB7B18461437BD4680BC704780B4B8
:10157C0083B000AF78600B467B8013467B707B7822
:10158C00002B03D07A887B681A6103E07B881A04ED
:10159C007B681A6100BF0C37BD4680BC70470000E9
:1015AC0080B586B000AF78607B68002B01D1012339
:1015BC006CE27B681B6803F00103002B00F0878052
:1015CC00924B5B6803F00C03042B0CD08F4B5B68C5
:1015DC0003F00C03082B12D18C4B5B6803F48033A3
:1015EC00B3F5803F0BD1894B1B6803F40033002B00
:1015FC006CD07B685B68002B68D1012346E27B686A
:10160C005B68B3F5803F06D1804B1B687F4A43F47F
:10161C00803313602EE07B685B68002B0CD17B4B16
:10162C001B687A4A23F480331360784B1B68774A23
:10163C0023F4802313601DE07B685B68B3F5A02F57
:10164C000CD1724B1B68714A43F4802313606F4BAF
:10165C001B686E4A43F4803313600BE06B4B1B68C2
:10166C006A4A23F480331360684B1B68674A23F47F
:10167C00802313607B685B68002B13D0FFF7CEFCD4
:10168C00386108E0FFF7CAFC02463B69D31A642BA9
:10169C0001D90323FAE15D4B1B6803F40033002BE3
:1016AC00F0D014E0FFF7BAFC386108E0FFF7B6FCA5
:1016BC0002463B69D31A642B01D90323E6E1534B51
:1016CC001B6803F40033002BF0D100E000BF7B68F3
:1016DC001B6803F00203002B63D04C4B5B6803F0D8
:1016EC000C03002B0BD0494B5B6803F00C03082B4D
:1016FC001CD1464B5B6803F48033002B16D1434B53
:10170C001B6803F00203002B05D07B681B69012BBF
:10171C0001D00123BAE13D4B1B6823F0F8027B6832
:10172C005B69DB00394913430B603AE07B681B694A
:10173C00002B20D0364B01221A60FFF76FFC38616A
:10174C0008E0FFF76BFC02463B69D31A022B01D968
:10175C0003239BE12D4B1B6803F00203002BF0D0FD
:10176C002A4B1B6823F0F8027B685B69DB00274976
:10177C0013430B6015E0264B00221A60FFF74EFC5A
:10178C00386108E0FFF74AFC02463B69D31A022B8A
:10179C0001D903237AE11D4B1B6803F00203002BD4
:1017AC00F0D17B681B6803F00803002B3AD07B68F0
:1017BC009B69002B19D0174B01221A60FFF72EFCE6
:1017CC00386108E0FFF72AFC02463B69D31A022B6A
:1017DC0001D903235AE10D4B5B6A03F00203002B82
:1017EC00F0D0012000F0A6FA1CE00A4B00221A608F
:1017FC00FFF714FC38610FE0FFF710FC02463B6961
:10180C00D31A022B08D9032340E100BF0010024079
:10181C0000004242800442429E4B5B6A03F002038A
:10182C00002BE9D17B681B6803F00403002B00F04C
:10183C00A6800023FB75974BDB6903F08053002BCC
:10184C000DD1944BDB69934A43F08053D361914B98
:10185C00DB6903F08053BB60BB680123FB758E4BC7
:10186C001B6803F48073002B18D18B4B1B688A4ABE
:10187C0043F480731360FFF7D1FB386108E0FFF786
:10188C00CDFB02463B69D31A642B01D90323FDE03F
:10189C00814B1B6803F48073002BF0D07B68DB68F2
:1018AC00012B06D17B4B1B6A7A4A43F0010313626E
:1018BC002DE07B68DB68002B0CD1764B1B6A754ADC
:1018CC0023F001031362734B1B6A724A23F0040367
:1018DC0013621CE07B68DB68052B0CD16D4B1B6A1B
:1018EC006C4A43F0040313626A4B1B6A694A43F067
:1018FC00010313620BE0674B1B6A664A23F001037A
:10190C001362644B1B6A634A23F0040313627B6803
:10191C00DB68002B15D0FFF781FB38610AE0FFF77D
:10192C007DFB02463B69D31A41F28832934201D9BE
:10193C000323ABE0574B1B6A03F00203002BEED0E2
:10194C0014E0FFF76BFB38610AE0FFF767FB024618
:10195C003B69D31A41F28832934201D9032395E0B3
:10196C004C4B1B6A03F00203002BEED1FB7D012BC9
:10197C0005D1484BDB69474A23F08053D3617B6820
:10198C00DB69002B00F08180424B5B6803F00C0399
:10199C00082B61D07B68DB69022B46D13F4B0022C0
:1019AC001A60FFF73BFB386108E0FFF737FB024694
:1019BC003B69D31A022B01D9032367E0354B1B6813
:1019CC0003F00073002BF0D17B681B6AB3F5803FEA
:1019DC0008D1304B5B6823F400327B689B682D493F
:1019EC0013434B602B4B5B6823F474127B68196AAE
:1019FC007B685B6A0B43274913434B60274B0122DF
:101A0C001A60FFF70BFB386108E0FFF707FB024693
:101A1C003B69D31A022B01D9032337E01D4B1B68FA
:101A2C0003F00073002BF0D02FE01C4B00221A6047
:101A3C00FFF7F4FA386108E0FFF7F0FA02463B6969
:101A4C00D31A022B01D9032320E0124B1B6803F09D
:101A5C000073002BF0D118E07B68DB69012B01D1FE
:101A6C00012313E00B4B5B68FB60FB6803F48032D3
:101A7C007B681B6A9A4206D1FB6803F470127B6880
:101A8C005B6A9A4201D0012300E000231846183704
:101A9C00BD4680BD00100240007000406000424214
:101AAC0080B584B000AF786039607B68002B01D1C1
:101ABC000123D0E06A4B1B6803F007033A689A4293
:101ACC0010D9674B1B6823F0070265493B68134329
:101ADC000B60634B1B6803F007033A689A4201D012
:101AEC000123B8E07B681B6803F00203002B20D0B5
:101AFC007B681B6803F00403002B05D0594B5B6813
:101B0C00584A43F4E06353607B681B6803F0080396
:101B1C00002B05D0534B5B68524A43F4605353601F
:101B2C00504B5B6823F0F0027B689B684D49134374
:101B3C004B607B681B6803F00103002B40D07B6873
:101B4C005B68012B07D1474B1B6803F40033002B58
:101B5C0015D101237FE07B685B68022B07D1414BD9
:101B6C001B6803F00073002B09D1012373E03D4B7C
:101B7C001B6803F00203002B01D101236BE0394BEE
:101B8C005B6823F003027B685B68364913434B6048
:101B9C00FFF744FAF8600AE0FFF740FA0246FB68E8
:101BAC00D31A41F28832934201D9032353E02D4BCF
:101BBC005B6803F00C027B685B689B009A42EBD17C
:101BCC00274B1B6803F007033A689A4210D2244B48
:101BDC001B6823F0070222493B6813430B60204B20
:101BEC001B6803F007033A689A4201D0012332E0E4
:101BFC007B681B6803F00403002B08D0194B5B684F
:101C0C0023F4E0627B68DB68164913434B607B6806
:101C1C001B6803F00803002B09D0124B5B6823F4FC
:101C2C0060527B681B69DB000E4913434B6000F06C
:101C3C0021F802460B4B5B681B0903F00F030A49A2
:101C4C00CB5C22FA03F3094A1360094B1B68184654
:101C5C00FFF7A2F9002318461037BD4680BD00BF20
:101C6C00002002400010024000250008280000203F
:101C7C003400002090B48AB000AF2A4B3C1D0FCB2F
:101C8C0084E80F0040F201233B800023FB6100231A
:101C9C00BB6100237B6200237B6100233B62224BF0
:101CAC005B68FB61FB6903F00C03042B02D0082B6F
:101CBC0003D02DE01D4B3B622DE0FB699B0C03F028
:101CCC000F0307F12802134413F8243C7B61FB69D2
:101CDC0003F48033002B13D0134B5B685B0C03F0C5
:101CEC00010307F12802134413F8283CBB617B69FC
:101CFC000E4A02FB03F2BB69B2FBF3F37B6204E016
:101D0C007B690B4A02FB03F37B627B6A3B6202E05A
:101D1C00064B3B6200BF3B6A18462837BD4690BC59
:101D2C00704700BFF02400080010024000127A0037
:101D3C0000093D0080B485B000AF78600A4B1B6889
:101D4C000A4AA2FB03235B0A7A6802FB03F3FB60DB
:101D5C0000BFFB685A1EFA60002BF9D100BF00BF10
:101D6C001437BD4680BC704728000020D34D62104C
:101D7C0080B582B000AF78607B68002B01D1012365
:101D8C001DE07B6893F83D30DBB2002B06D17B68FD
:101D9C00002283F83C207868FEF7F4FF7B6802226F
:101DAC0083F83D207B681A687B680433194610461B
:101DBC0000F01CFA7B68012283F83D2000231846B2
:101DCC000837BD4680BD80B485B000AF78607B68B5
:101DDC001B68DA687B681B6842F00102DA607B687A
:101DEC001B689B6803F00703FB60FB68062B07D09E
:101DFC007B681B681A687B681B6842F001021A60DA
:101E0C00002318461437BD4680BC704780B582B09D
:101E1C0000AF78607B681B681B6903F00203022B20
:101E2C0022D17B681B68DB6803F00203022B1BD1F9
:101E3C007B681B686FF002021A617B6801221A77BB
:101E4C007B681B689B6903F00303002B03D0786845
:101E5C0000F0B1F905E0786800F0A4F9786800F0BA
:101E6C00B3F97B6800221A777B681B681B6903F047
:101E7C000403042B22D17B681B68DB6803F004038A
:101E8C00042B1BD17B681B686FF004021A617B6802
:101E9C0002221A777B681B689B6903F44073002B42
:101EAC0003D0786800F087F905E0786800F07AF9DB
:101EBC00786800F089F97B6800221A777B681B68C8
:101ECC001B6903F00803082B22D17B681B68DB68B5
:101EDC0003F00803082B1BD17B681B686FF008020A
:101EEC001A617B6804221A777B681B68DB6903F034
:101EFC000303002B03D0786800F05DF905E07868E7
:101F0C0000F050F9786800F05FF97B6800221A77CE
:101F1C007B681B681B6903F01003102B22D17B68B4
:101F2C001B68DB6803F01003102B1BD17B681B684C
:101F3C006FF010021A617B6808221A777B681B68A5
:101F4C00DB6903F44073002B03D0786800F033F99D
:101F5C0005E0786800F026F9786800F035F97B68C0
:101F6C0000221A777B681B681B6903F00103012BA5
:101F7C000ED17B681B68DB6803F00103012B07D1D2
:101F8C007B681B686FF001021A617868FEF784FFAA
:101F9C007B681B681B6903F08003802B0ED17B6868
:101FAC001B68DB6803F08003802B07D17B681B6800
:101FBC006FF080021A61786800F053FA7B681B6836
:101FCC001B6903F04003402B0ED17B681B68DB6858
:101FDC0003F04003402B07D17B681B686FF0400275
:101FEC001A61786800F0F9F87B681B681B6903F0CC
:101FFC002003202B0ED17B681B68DB6803F02003C9
:10200C00202B07D17B681B686FF020021A6178685F
:10201C0000F01EFA00BF0837BD4680BD80B584B005
:10202C0000AF786039607B6893F83C30012B01D1AC
:10203C000223B3E07B68012283F83C207B680222F8
:10204C0083F83D207B681B689B68FB60FB6823F072
:10205C007703FB60FB6823F47F43FB607B681B68A2
:10206C00FA689A603B681B68B3F5005F3ED0B3F525
:10207C00005F00F28780B3F5805F00F08580B3F5D8
:10208C00805F7FD8702B1AD0702B7BD8602B50D0F0
:10209C00602B77D8502B3CD0502B73D8402B58D07A
:1020AC00402B6FD8302B64D0302B6BD8202B60D0CA
:1020BC00202B67D8002B5CD0102B5AD062E07B68A9
:1020CC0018683B6899683B685A683B68DB6800F0A5
:1020DC005CF97B681B689B68FB60FB6843F07703CB
:1020EC00FB607B681B68FA689A604EE07B68186836
:1020FC003B6899683B685A683B68DB6800F045F9B7
:10210C007B681B689A687B681B6842F480429A6003
:10211C003BE07B6818683B6859683B68DB681A468B
:10212C0000F0BCF87B681B685021184600F013F9CE
:10213C002BE07B6818683B6859683B68DB681A467B
:10214C0000F0DAF87B681B686021184600F003F990
:10215C001BE07B6818683B6859683B68DB681A466B
:10216C0000F09CF87B681B684021184600F0F3F8DF
:10217C000BE07B681A683B681B681946104600F038
:10218C00EAF802E000BF00E000BF7B68012283F8A0
:10219C003D207B68002283F83C2000231846103732
:1021AC00BD4680BD80B483B000AF786000BF0C37F3
:1021BC00BD4680BC704780B483B000AF786000BF70
:1021CC000C37BD4680BC704780B483B000AF7860DC
:1021DC0000BF0C37BD4680BC704780B483B000AFE5
:1021EC00786000BF0C37BD4680BC704780B485B0AA
:1021FC0000AF786039607B681B68FB607B68254AA0
:10220C00934207D07B68B3F1804F03D07B68224A9E
:10221C00934208D1FB6823F07003FB603B685B685A
:10222C00FA681343FB607B681A4A934207D07B68B9
:10223C00B3F1804F03D07B68174A934208D1FB68F7
:10224C0023F44073FB603B68DB68FA681343FB6064
:10225C00FB6823F080023B685B691343FB607B687F
:10226C00FA681A603B689A687B68DA623B681A689D
:10227C007B689A627B68074A934203D13B681A6970
:10228C007B681A637B6801225A6100BF1437BD4614
:10229C0080BC7047002C01400004004080B487B023
:1022AC0000AFF860B9607A60FB681B6A7B61FB6801
:1022BC001B6A23F00102FB681A62FB689B693B6195
:1022CC003B6923F0F0033B617B681B013A691343C4
:1022DC003B617B6923F00A037B617A69BB6813431A
:1022EC007B61FB683A699A61FB687A691A6200BF84
:1022FC001C37BD4680BC704780B487B000AFF86017
:10230C00B9607A60FB681B6A23F01002FB681A62E2
:10231C00FB689B697B61FB681B6A3B617B6923F4EF
:10232C0070437B617B681B037A6913437B613B6958
:10233C0023F0A0033B61BB681B013A6913433B616B
:10234C00FB687A699A61FB683A691A6200BF1C37AC
:10235C00BD4680BC704780B485B000AF78603960F2
:10236C007B689B68FB60FB6823F07003FB603A683A
:10237C00FB68134343F00703FB607B68FA689A60C1
:10238C0000BF1437BD4680BC704780B487B000AF27
:10239C00F860B9607A603B60FB689B687B617B6925
:1023AC0023F47F437B613B681A027B681A43BB684A
:1023BC0013437A6913437B61FB687A699A6000BFA7
:1023CC001C37BD4680BC704780B485B000AF7860C8
:1023DC0039607B6893F83C30012B01D1022332E049
:1023EC007B68012283F83C207B68022283F83D2025
:1023FC007B681B685B68FB607B681B689B68BB60C9
:10240C00FB6823F07003FB603B681B68FA6813439E
:10241C00FB60BB6823F08003BB603B685B68BA68F9
:10242C001343BB607B681B68FA685A607B681B6847
:10243C00BA689A607B68012283F83D207B68002291
:10244C0083F83C20002318461437BD4680BC7047E7
:10245C0080B483B000AF786000BF0C37BD4680BC41
:10246C00704780B483B000AF786000BF0C37BD46B6
:10247C0080BC704770B500260C4D0D4C641BA4102D
:10248C00A64209D100F022F800260A4D0A4C641B22
:10249C00A410A64205D170BD55F8043B98470136EF
:1024AC00EEE755F8043B98470136F2E71025000893
:1024BC0010250008102500081425000803460244C6
:1024CC00934200D1704703F8011BF9E7F8B500BF40
:1024DC00F8BC08BC9E467047F8B500BFF8BC08BCF9
:0424EC009E46704751
:1024F00002030405060708090A0B0C0D0E0F101045
:1025000000000000000000000102030406070809A3
:04251000310100088D
:042514000D010008AD
:1025180005000000020000000300000005000000A4
:10252800020000000300000002000000010000009B
:1025380001000000010000000024F4006400000015
:0C25480032000000100000000100000044
:0400000508000F2DB3
:00000001FF
